{
  "_format": "hh-sol-artifact-1",
  "contractName": "NFTGenrator",
  "sourceName": "contracts/NFTGenrator.sol",
  "abi": [
    {
      "inputs": [
        {
          "internalType": "address",
          "name": "",
          "type": "address"
        },
        {
          "internalType": "uint256",
          "name": "",
          "type": "uint256"
        }
      ],
      "name": "accounts",
      "outputs": [
        {
          "internalType": "contract MyNFTCollection",
          "name": "",
          "type": "address"
        }
      ],
      "stateMutability": "view",
      "type": "function"
    },
    {
      "inputs": [
        {
          "internalType": "uint256",
          "name": "",
          "type": "uint256"
        }
      ],
      "name": "collections",
      "outputs": [
        {
          "internalType": "contract MyNFTCollection",
          "name": "",
          "type": "address"
        }
      ],
      "stateMutability": "view",
      "type": "function"
    },
    {
      "inputs": [
        {
          "internalType": "string",
          "name": "Name",
          "type": "string"
        },
        {
          "internalType": "string",
          "name": "Symbol",
          "type": "string"
        },
        {
          "internalType": "string",
          "name": "baseUri",
          "type": "string"
        },
        {
          "internalType": "uint256",
          "name": "mintAmount",
          "type": "uint256"
        }
      ],
      "name": "createNewCollection",
      "outputs": [],
      "stateMutability": "nonpayable",
      "type": "function"
    },
    {
      "inputs": [
        {
          "internalType": "address",
          "name": "account",
          "type": "address"
        }
      ],
      "name": "deployedCount",
      "outputs": [
        {
          "internalType": "uint256",
          "name": "",
          "type": "uint256"
        }
      ],
      "stateMutability": "view",
      "type": "function"
    }
  ],
  "bytecode": "0x608060405234801561001057600080fd5b50615b7b806100206000396000f3fe60806040523480156200001157600080fd5b5060043610620000525760003560e01c80637dc237d0146200005757806386b4ed9b146200008d5780638752458114620000ad578063fdbda0ec14620000e3575b600080fd5b6200007560048036038101906200006f9190620003ca565b62000119565b60405162000084919062000417565b60405180910390f35b620000ab6004803603810190620000a59190620005c7565b62000165565b005b620000cb6004803603810190620000c5919062000696565b620002b4565b604051620000da919062000748565b60405180910390f35b620001016004803603810190620000fb919062000765565b62000303565b60405162000110919062000748565b60405180910390f35b6000600160008373ffffffffffffffffffffffffffffffffffffffff1673ffffffffffffffffffffffffffffffffffffffff168152602001908152602001600020805490509050919050565b600084848484336040516200017a9062000343565b6200018a9594939291906200083b565b604051809103906000f080158015620001a7573d6000803e3d6000fd5b509050600160003373ffffffffffffffffffffffffffffffffffffffff1673ffffffffffffffffffffffffffffffffffffffff168152602001908152602001600020819080600181540180825580915050600190039060005260206000200160009091909190916101000a81548173ffffffffffffffffffffffffffffffffffffffff021916908373ffffffffffffffffffffffffffffffffffffffff1602179055506000819080600181540180825580915050600190039060005260206000200160009091909190916101000a81548173ffffffffffffffffffffffffffffffffffffffff021916908373ffffffffffffffffffffffffffffffffffffffff1602179055505050505050565b60016020528160005260406000208181548110620002d157600080fd5b906000526020600020016000915091509054906101000a900473ffffffffffffffffffffffffffffffffffffffff1681565b600081815481106200031457600080fd5b906000526020600020016000915054906101000a900473ffffffffffffffffffffffffffffffffffffffff1681565b61529880620008ae83390190565b6000604051905090565b600080fd5b600080fd5b600073ffffffffffffffffffffffffffffffffffffffff82169050919050565b6000620003928262000365565b9050919050565b620003a48162000385565b8114620003b057600080fd5b50565b600081359050620003c48162000399565b92915050565b600060208284031215620003e357620003e26200035b565b5b6000620003f384828501620003b3565b91505092915050565b6000819050919050565b6200041181620003fc565b82525050565b60006020820190506200042e600083018462000406565b92915050565b600080fd5b600080fd5b6000601f19601f8301169050919050565b7f4e487b7100000000000000000000000000000000000000000000000000000000600052604160045260246000fd5b62000489826200043e565b810181811067ffffffffffffffff82111715620004ab57620004aa6200044f565b5b80604052505050565b6000620004c062000351565b9050620004ce82826200047e565b919050565b600067ffffffffffffffff821115620004f157620004f06200044f565b5b620004fc826200043e565b9050602081019050919050565b82818337600083830152505050565b60006200052f6200052984620004d3565b620004b4565b9050828152602081018484840111156200054e576200054d62000439565b5b6200055b84828562000509565b509392505050565b600082601f8301126200057b576200057a62000434565b5b81356200058d84826020860162000518565b91505092915050565b620005a181620003fc565b8114620005ad57600080fd5b50565b600081359050620005c18162000596565b92915050565b60008060008060808587031215620005e457620005e36200035b565b5b600085013567ffffffffffffffff81111562000605576200060462000360565b5b620006138782880162000563565b945050602085013567ffffffffffffffff81111562000637576200063662000360565b5b620006458782880162000563565b935050604085013567ffffffffffffffff81111562000669576200066862000360565b5b620006778782880162000563565b92505060606200068a87828801620005b0565b91505092959194509250565b60008060408385031215620006b057620006af6200035b565b5b6000620006c085828601620003b3565b9250506020620006d385828601620005b0565b9150509250929050565b6000819050919050565b60006200070862000702620006fc8462000365565b620006dd565b62000365565b9050919050565b60006200071c82620006e7565b9050919050565b600062000730826200070f565b9050919050565b620007428162000723565b82525050565b60006020820190506200075f600083018462000737565b92915050565b6000602082840312156200077e576200077d6200035b565b5b60006200078e84828501620005b0565b91505092915050565b600081519050919050565b600082825260208201905092915050565b60005b83811015620007d3578082015181840152602081019050620007b6565b83811115620007e3576000848401525b50505050565b6000620007f68262000797565b620008028185620007a2565b935062000814818560208601620007b3565b6200081f816200043e565b840191505092915050565b620008358162000385565b82525050565b600060a0820190508181036000830152620008578188620007e9565b905081810360208301526200086d8187620007e9565b90508181036040830152620008838186620007e9565b905062000894606083018562000406565b620008a360808301846200082a565b969550505050505056fe60806040526040518060400160405280600581526020017f2e6a736f6e000000000000000000000000000000000000000000000000000000815250600c90805190602001906200005192919062000db2565b506000600e60006101000a81548160ff0219169083151502179055503480156200007a57600080fd5b5060405162005298380380620052988339818101604052810190620000a091906200109f565b84848160009080519060200190620000ba92919062000db2565b508060019080519060200190620000d392919062000db2565b505050620000f6620000ea6200012b60201b60201c565b6200013360201b60201c565b6200010783620001f960201b60201c565b81600d819055506200012081836200022560201b60201c565b505050505062001755565b600033905090565b6000600a60009054906101000a900473ffffffffffffffffffffffffffffffffffffffff16905081600a60006101000a81548173ffffffffffffffffffffffffffffffffffffffff021916908373ffffffffffffffffffffffffffffffffffffffff1602179055508173ffffffffffffffffffffffffffffffffffffffff168173ffffffffffffffffffffffffffffffffffffffff167f8be0079c531659141344cd1fd0a4f28419497f9722a3daafe3b4186f6b6457e060405160405180910390a35050565b62000209620002d960201b60201c565b80600b90805190602001906200022192919062000db2565b5050565b62000235620002d960201b60201c565b6000620002476200036a60201b60201c565b9050600e60009054906101000a900460ff16156200026457600080fd5b600082116200027257600080fd5b600d548282620002839190620011b3565b11156200028f57600080fd5b6000600190505b828111620002d357620002bd848284620002b19190620011b3565b6200037760201b60201c565b8080620002ca9062001210565b91505062000296565b50505050565b620002e96200012b60201b60201c565b73ffffffffffffffffffffffffffffffffffffffff166200030f6200039d60201b60201c565b73ffffffffffffffffffffffffffffffffffffffff161462000368576040517f08c379a00000000000000000000000000000000000000000000000000000000081526004016200035f90620012bf565b60405180910390fd5b565b6000600880549050905090565b62000399828260405180602001604052806000815250620003c760201b60201c565b5050565b6000600a60009054906101000a900473ffffffffffffffffffffffffffffffffffffffff16905090565b620003d983836200043560201b60201c565b620003ee60008484846200062f60201b60201c565b62000430576040517f08c379a0000000000000000000000000000000000000000000000000000000008152600401620004279062001357565b60405180910390fd5b505050565b600073ffffffffffffffffffffffffffffffffffffffff168273ffffffffffffffffffffffffffffffffffffffff161415620004a8576040517f08c379a00000000000000000000000000000000000000000000000000000000081526004016200049f90620013c9565b60405180910390fd5b620004b981620007e960201b60201c565b15620004fc576040517f08c379a0000000000000000000000000000000000000000000000000000000008152600401620004f3906200143b565b60405180910390fd5b62000510600083836200085560201b60201c565b6001600360008473ffffffffffffffffffffffffffffffffffffffff1673ffffffffffffffffffffffffffffffffffffffff1681526020019081526020016000206000828254620005629190620011b3565b92505081905550816002600083815260200190815260200160002060006101000a81548173ffffffffffffffffffffffffffffffffffffffff021916908373ffffffffffffffffffffffffffffffffffffffff160217905550808273ffffffffffffffffffffffffffffffffffffffff16600073ffffffffffffffffffffffffffffffffffffffff167fddf252ad1be2c89b69c2b068fc378daa952ba7f163c4a11628f55a4df523b3ef60405160405180910390a46200062b600083836200099c60201b60201c565b5050565b60006200065d8473ffffffffffffffffffffffffffffffffffffffff16620009a160201b620012d11760201c565b15620007dc578373ffffffffffffffffffffffffffffffffffffffff1663150b7a026200068f6200012b60201b60201c565b8786866040518563ffffffff1660e01b8152600401620006b39493929190620014dc565b602060405180830381600087803b158015620006ce57600080fd5b505af19250505080156200070257506040513d601f19601f82011682018060405250810190620006ff91906200158d565b60015b6200078b573d806000811462000735576040519150601f19603f3d011682016040523d82523d6000602084013e6200073a565b606091505b5060008151141562000783576040517f08c379a00000000000000000000000000000000000000000000000000000000081526004016200077a9062001357565b60405180910390fd5b805181602001fd5b63150b7a0260e01b7bffffffffffffffffffffffffffffffffffffffffffffffffffffffff1916817bffffffffffffffffffffffffffffffffffffffffffffffffffffffff191614915050620007e1565b600190505b949350505050565b60008073ffffffffffffffffffffffffffffffffffffffff166002600084815260200190815260200160002060009054906101000a900473ffffffffffffffffffffffffffffffffffffffff1673ffffffffffffffffffffffffffffffffffffffff1614159050919050565b6200086d838383620009c460201b620012f41760201c565b600073ffffffffffffffffffffffffffffffffffffffff168373ffffffffffffffffffffffffffffffffffffffff161415620008ba57620008b481620009c960201b60201c565b62000902565b8173ffffffffffffffffffffffffffffffffffffffff168373ffffffffffffffffffffffffffffffffffffffff1614620009015762000900838262000a1260201b60201c565b5b5b600073ffffffffffffffffffffffffffffffffffffffff168273ffffffffffffffffffffffffffffffffffffffff1614156200094f57620009498162000b8f60201b60201c565b62000997565b8273ffffffffffffffffffffffffffffffffffffffff168273ffffffffffffffffffffffffffffffffffffffff1614620009965762000995828262000c6b60201b60201c565b5b5b505050565b505050565b6000808273ffffffffffffffffffffffffffffffffffffffff163b119050919050565b505050565b6008805490506009600083815260200190815260200160002081905550600881908060018154018082558091505060019003906000526020600020016000909190919091505550565b6000600162000a2c8462000cf760201b62000e591760201c565b62000a389190620015bf565b905060006007600084815260200190815260200160002054905081811462000b1e576000600660008673ffffffffffffffffffffffffffffffffffffffff1673ffffffffffffffffffffffffffffffffffffffff168152602001908152602001600020600084815260200190815260200160002054905080600660008773ffffffffffffffffffffffffffffffffffffffff1673ffffffffffffffffffffffffffffffffffffffff168152602001908152602001600020600084815260200190815260200160002081905550816007600083815260200190815260200160002081905550505b6007600084815260200190815260200160002060009055600660008573ffffffffffffffffffffffffffffffffffffffff1673ffffffffffffffffffffffffffffffffffffffff16815260200190815260200160002060008381526020019081526020016000206000905550505050565b6000600160088054905062000ba59190620015bf565b905060006009600084815260200190815260200160002054905060006008838154811062000bd85762000bd7620015fa565b5b90600052602060002001549050806008838154811062000bfd5762000bfc620015fa565b5b90600052602060002001819055508160096000838152602001908152602001600020819055506009600085815260200190815260200160002060009055600880548062000c4f5762000c4e62001629565b5b6001900381819060005260206000200160009055905550505050565b600062000c838362000cf760201b62000e591760201c565b905081600660008573ffffffffffffffffffffffffffffffffffffffff1673ffffffffffffffffffffffffffffffffffffffff168152602001908152602001600020600083815260200190815260200160002081905550806007600084815260200190815260200160002081905550505050565b60008073ffffffffffffffffffffffffffffffffffffffff168273ffffffffffffffffffffffffffffffffffffffff16141562000d6b576040517f08c379a000000000000000000000000000000000000000000000000000000000815260040162000d6290620016ce565b60405180910390fd5b600360008373ffffffffffffffffffffffffffffffffffffffff1673ffffffffffffffffffffffffffffffffffffffff168152602001908152602001600020549050919050565b82805462000dc0906200171f565b90600052602060002090601f01602090048101928262000de4576000855562000e30565b82601f1062000dff57805160ff191683800117855562000e30565b8280016001018555821562000e30579182015b8281111562000e2f57825182559160200191906001019062000e12565b5b50905062000e3f919062000e43565b5090565b5b8082111562000e5e57600081600090555060010162000e44565b5090565b6000604051905090565b600080fd5b600080fd5b600080fd5b600080fd5b6000601f19601f8301169050919050565b7f4e487b7100000000000000000000000000000000000000000000000000000000600052604160045260246000fd5b62000ecb8262000e80565b810181811067ffffffffffffffff8211171562000eed5762000eec62000e91565b5b80604052505050565b600062000f0262000e62565b905062000f10828262000ec0565b919050565b600067ffffffffffffffff82111562000f335762000f3262000e91565b5b62000f3e8262000e80565b9050602081019050919050565b60005b8381101562000f6b57808201518184015260208101905062000f4e565b8381111562000f7b576000848401525b50505050565b600062000f9862000f928462000f15565b62000ef6565b90508281526020810184848401111562000fb75762000fb662000e7b565b5b62000fc484828562000f4b565b509392505050565b600082601f83011262000fe45762000fe362000e76565b5b815162000ff684826020860162000f81565b91505092915050565b6000819050919050565b620010148162000fff565b81146200102057600080fd5b50565b600081519050620010348162001009565b92915050565b600073ffffffffffffffffffffffffffffffffffffffff82169050919050565b600062001067826200103a565b9050919050565b62001079816200105a565b81146200108557600080fd5b50565b60008151905062001099816200106e565b92915050565b600080600080600060a08688031215620010be57620010bd62000e6c565b5b600086015167ffffffffffffffff811115620010df57620010de62000e71565b5b620010ed8882890162000fcc565b955050602086015167ffffffffffffffff81111562001111576200111062000e71565b5b6200111f8882890162000fcc565b945050604086015167ffffffffffffffff81111562001143576200114262000e71565b5b620011518882890162000fcc565b9350506060620011648882890162001023565b9250506080620011778882890162001088565b9150509295509295909350565b7f4e487b7100000000000000000000000000000000000000000000000000000000600052601160045260246000fd5b6000620011c08262000fff565b9150620011cd8362000fff565b9250827fffffffffffffffffffffffffffffffffffffffffffffffffffffffffffffffff0382111562001205576200120462001184565b5b828201905092915050565b60006200121d8262000fff565b91507fffffffffffffffffffffffffffffffffffffffffffffffffffffffffffffffff82141562001253576200125262001184565b5b600182019050919050565b600082825260208201905092915050565b7f4f776e61626c653a2063616c6c6572206973206e6f7420746865206f776e6572600082015250565b6000620012a76020836200125e565b9150620012b4826200126f565b602082019050919050565b60006020820190508181036000830152620012da8162001298565b9050919050565b7f4552433732313a207472616e7366657220746f206e6f6e20455243373231526560008201527f63656976657220696d706c656d656e7465720000000000000000000000000000602082015250565b60006200133f6032836200125e565b91506200134c82620012e1565b604082019050919050565b60006020820190508181036000830152620013728162001330565b9050919050565b7f4552433732313a206d696e7420746f20746865207a65726f2061646472657373600082015250565b6000620013b16020836200125e565b9150620013be8262001379565b602082019050919050565b60006020820190508181036000830152620013e481620013a2565b9050919050565b7f4552433732313a20746f6b656e20616c7265616479206d696e74656400000000600082015250565b600062001423601c836200125e565b91506200143082620013eb565b602082019050919050565b60006020820190508181036000830152620014568162001414565b9050919050565b62001468816200105a565b82525050565b620014798162000fff565b82525050565b600081519050919050565b600082825260208201905092915050565b6000620014a8826200147f565b620014b481856200148a565b9350620014c681856020860162000f4b565b620014d18162000e80565b840191505092915050565b6000608082019050620014f360008301876200145d565b6200150260208301866200145d565b6200151160408301856200146e565b81810360608301526200152581846200149b565b905095945050505050565b60007fffffffff0000000000000000000000000000000000000000000000000000000082169050919050565b620015678162001530565b81146200157357600080fd5b50565b60008151905062001587816200155c565b92915050565b600060208284031215620015a657620015a562000e6c565b5b6000620015b68482850162001576565b91505092915050565b6000620015cc8262000fff565b9150620015d98362000fff565b925082821015620015ef57620015ee62001184565b5b828203905092915050565b7f4e487b7100000000000000000000000000000000000000000000000000000000600052603260045260246000fd5b7f4e487b7100000000000000000000000000000000000000000000000000000000600052603160045260246000fd5b7f4552433732313a2061646472657373207a65726f206973206e6f74206120766160008201527f6c6964206f776e65720000000000000000000000000000000000000000000000602082015250565b6000620016b66029836200125e565b9150620016c38262001658565b604082019050919050565b60006020820190508181036000830152620016e981620016a7565b9050919050565b7f4e487b7100000000000000000000000000000000000000000000000000000000600052602260045260246000fd5b600060028204905060018216806200173857607f821691505b602082108114156200174f576200174e620016f0565b5b50919050565b613b3380620017656000396000f3fe6080604052600436106101c25760003560e01c80635c975abb116100f7578063a22cb46511610095578063d5abeb0111610064578063d5abeb0114610638578063da3ef23f14610663578063e985e9c51461068c578063f2fde38b146106c9576101c2565b8063a22cb4651461057e578063b88d4fde146105a7578063c6682862146105d0578063c87b56dd146105fb576101c2565b806370a08231116100d157806370a08231146104d4578063715018a6146105115780638da5cb5b1461052857806395d89b4114610553576101c2565b80635c975abb146104415780636352211e1461046c5780636c0360eb146104a9576101c2565b80632f745c591161016457806342842e0e1161013e57806342842e0e14610375578063438b63001461039e5780634f6ccce7146103db57806355f804b314610418576101c2565b80632f745c59146103125780633ccfd60b1461034f57806340c10f1914610359576101c2565b8063081812fc116101a0578063081812fc14610258578063095ea7b31461029557806318160ddd146102be57806323b872dd146102e9576101c2565b806301ffc9a7146101c757806302329a291461020457806306fdde031461022d575b600080fd5b3480156101d357600080fd5b506101ee60048036038101906101e991906126d1565b6106f2565b6040516101fb9190612719565b60405180910390f35b34801561021057600080fd5b5061022b60048036038101906102269190612760565b61076c565b005b34801561023957600080fd5b50610242610791565b60405161024f9190612826565b60405180910390f35b34801561026457600080fd5b5061027f600480360381019061027a919061287e565b610823565b60405161028c91906128ec565b60405180910390f35b3480156102a157600080fd5b506102bc60048036038101906102b79190612933565b610869565b005b3480156102ca57600080fd5b506102d3610981565b6040516102e09190612982565b60405180910390f35b3480156102f557600080fd5b50610310600480360381019061030b919061299d565b61098e565b005b34801561031e57600080fd5b5061033960048036038101906103349190612933565b6109ee565b6040516103469190612982565b60405180910390f35b610357610a93565b005b610373600480360381019061036e9190612933565b610b14565b005b34801561038157600080fd5b5061039c6004803603810190610397919061299d565b610ba5565b005b3480156103aa57600080fd5b506103c560048036038101906103c091906129f0565b610bc5565b6040516103d29190612adb565b60405180910390f35b3480156103e757600080fd5b5061040260048036038101906103fd919061287e565b610c73565b60405161040f9190612982565b60405180910390f35b34801561042457600080fd5b5061043f600480360381019061043a9190612c32565b610ce4565b005b34801561044d57600080fd5b50610456610d06565b6040516104639190612719565b60405180910390f35b34801561047857600080fd5b50610493600480360381019061048e919061287e565b610d19565b6040516104a091906128ec565b60405180910390f35b3480156104b557600080fd5b506104be610dcb565b6040516104cb9190612826565b60405180910390f35b3480156104e057600080fd5b506104fb60048036038101906104f691906129f0565b610e59565b6040516105089190612982565b60405180910390f35b34801561051d57600080fd5b50610526610f11565b005b34801561053457600080fd5b5061053d610f25565b60405161054a91906128ec565b60405180910390f35b34801561055f57600080fd5b50610568610f4f565b6040516105759190612826565b60405180910390f35b34801561058a57600080fd5b506105a560048036038101906105a09190612c7b565b610fe1565b005b3480156105b357600080fd5b506105ce60048036038101906105c99190612d5c565b610ff7565b005b3480156105dc57600080fd5b506105e5611059565b6040516105f29190612826565b60405180910390f35b34801561060757600080fd5b50610622600480360381019061061d919061287e565b6110e7565b60405161062f9190612826565b60405180910390f35b34801561064457600080fd5b5061064d611191565b60405161065a9190612982565b60405180910390f35b34801561066f57600080fd5b5061068a60048036038101906106859190612c32565b611197565b005b34801561069857600080fd5b506106b360048036038101906106ae9190612ddf565b6111b9565b6040516106c09190612719565b60405180910390f35b3480156106d557600080fd5b506106f060048036038101906106eb91906129f0565b61124d565b005b60007f780e9d63000000000000000000000000000000000000000000000000000000007bffffffffffffffffffffffffffffffffffffffffffffffffffffffff1916827bffffffffffffffffffffffffffffffffffffffffffffffffffffffff191614806107655750610764826112f9565b5b9050919050565b6107746113db565b80600e60006101000a81548160ff02191690831515021790555050565b6060600080546107a090612e4e565b80601f01602080910402602001604051908101604052809291908181526020018280546107cc90612e4e565b80156108195780601f106107ee57610100808354040283529160200191610819565b820191906000526020600020905b8154815290600101906020018083116107fc57829003601f168201915b5050505050905090565b600061082e82611459565b6004600083815260200190815260200160002060009054906101000a900473ffffffffffffffffffffffffffffffffffffffff169050919050565b600061087482610d19565b90508073ffffffffffffffffffffffffffffffffffffffff168373ffffffffffffffffffffffffffffffffffffffff1614156108e5576040517f08c379a00000000000000000000000000000000000000000000000000000000081526004016108dc90612ef2565b60405180910390fd5b8073ffffffffffffffffffffffffffffffffffffffff166109046114a4565b73ffffffffffffffffffffffffffffffffffffffff16148061093357506109328161092d6114a4565b6111b9565b5b610972576040517f08c379a000000000000000000000000000000000000000000000000000000000815260040161096990612f84565b60405180910390fd5b61097c83836114ac565b505050565b6000600880549050905090565b61099f6109996114a4565b82611565565b6109de576040517f08c379a00000000000000000000000000000000000000000000000000000000081526004016109d590613016565b60405180910390fd5b6109e98383836115fa565b505050565b60006109f983610e59565b8210610a3a576040517f08c379a0000000000000000000000000000000000000000000000000000000008152600401610a31906130a8565b60405180910390fd5b600660008473ffffffffffffffffffffffffffffffffffffffff1673ffffffffffffffffffffffffffffffffffffffff168152602001908152602001600020600083815260200190815260200160002054905092915050565b610a9b6113db565b60003373ffffffffffffffffffffffffffffffffffffffff1647604051610ac1906130f9565b60006040518083038185875af1925050503d8060008114610afe576040519150601f19603f3d011682016040523d82523d6000602084013e610b03565b606091505b5050905080610b1157600080fd5b50565b610b1c6113db565b6000610b26610981565b9050600e60009054906101000a900460ff1615610b4257600080fd5b60008211610b4f57600080fd5b600d548282610b5e919061313d565b1115610b6957600080fd5b6000600190505b828111610b9f57610b8c848284610b87919061313d565b611861565b8080610b9790613193565b915050610b70565b50505050565b610bc083838360405180602001604052806000815250610ff7565b505050565b60606000610bd283610e59565b905060008167ffffffffffffffff811115610bf057610bef612b07565b5b604051908082528060200260200182016040528015610c1e5781602001602082028036833780820191505090505b50905060005b82811015610c6857610c3685826109ee565b828281518110610c4957610c486131dc565b5b6020026020010181815250508080610c6090613193565b915050610c24565b508092505050919050565b6000610c7d610981565b8210610cbe576040517f08c379a0000000000000000000000000000000000000000000000000000000008152600401610cb59061327d565b60405180910390fd5b60088281548110610cd257610cd16131dc565b5b90600052602060002001549050919050565b610cec6113db565b80600b9080519060200190610d029291906125c2565b5050565b600e60009054906101000a900460ff1681565b6000806002600084815260200190815260200160002060009054906101000a900473ffffffffffffffffffffffffffffffffffffffff169050600073ffffffffffffffffffffffffffffffffffffffff168173ffffffffffffffffffffffffffffffffffffffff161415610dc2576040517f08c379a0000000000000000000000000000000000000000000000000000000008152600401610db9906132e9565b60405180910390fd5b80915050919050565b600b8054610dd890612e4e565b80601f0160208091040260200160405190810160405280929190818152602001828054610e0490612e4e565b8015610e515780601f10610e2657610100808354040283529160200191610e51565b820191906000526020600020905b815481529060010190602001808311610e3457829003601f168201915b505050505081565b60008073ffffffffffffffffffffffffffffffffffffffff168273ffffffffffffffffffffffffffffffffffffffff161415610eca576040517f08c379a0000000000000000000000000000000000000000000000000000000008152600401610ec19061337b565b60405180910390fd5b600360008373ffffffffffffffffffffffffffffffffffffffff1673ffffffffffffffffffffffffffffffffffffffff168152602001908152602001600020549050919050565b610f196113db565b610f23600061187f565b565b6000600a60009054906101000a900473ffffffffffffffffffffffffffffffffffffffff16905090565b606060018054610f5e90612e4e565b80601f0160208091040260200160405190810160405280929190818152602001828054610f8a90612e4e565b8015610fd75780601f10610fac57610100808354040283529160200191610fd7565b820191906000526020600020905b815481529060010190602001808311610fba57829003601f168201915b5050505050905090565b610ff3610fec6114a4565b8383611945565b5050565b6110086110026114a4565b83611565565b611047576040517f08c379a000000000000000000000000000000000000000000000000000000000815260040161103e90613016565b60405180910390fd5b61105384848484611ab2565b50505050565b600c805461106690612e4e565b80601f016020809104026020016040519081016040528092919081815260200182805461109290612e4e565b80156110df5780601f106110b4576101008083540402835291602001916110df565b820191906000526020600020905b8154815290600101906020018083116110c257829003601f168201915b505050505081565b60606110f282611b0e565b611131576040517f08c379a00000000000000000000000000000000000000000000000000000000081526004016111289061340d565b60405180910390fd5b600061113b611b7a565b9050600081511161115b5760405180602001604052806000815250611189565b8061116584611c0c565b600c604051602001611179939291906134fd565b6040516020818303038152906040525b915050919050565b600d5481565b61119f6113db565b80600c90805190602001906111b59291906125c2565b5050565b6000600560008473ffffffffffffffffffffffffffffffffffffffff1673ffffffffffffffffffffffffffffffffffffffff16815260200190815260200160002060008373ffffffffffffffffffffffffffffffffffffffff1673ffffffffffffffffffffffffffffffffffffffff16815260200190815260200160002060009054906101000a900460ff16905092915050565b6112556113db565b600073ffffffffffffffffffffffffffffffffffffffff168173ffffffffffffffffffffffffffffffffffffffff1614156112c5576040517f08c379a00000000000000000000000000000000000000000000000000000000081526004016112bc906135a0565b60405180910390fd5b6112ce8161187f565b50565b6000808273ffffffffffffffffffffffffffffffffffffffff163b119050919050565b505050565b60007f80ac58cd000000000000000000000000000000000000000000000000000000007bffffffffffffffffffffffffffffffffffffffffffffffffffffffff1916827bffffffffffffffffffffffffffffffffffffffffffffffffffffffff191614806113c457507f5b5e139f000000000000000000000000000000000000000000000000000000007bffffffffffffffffffffffffffffffffffffffffffffffffffffffff1916827bffffffffffffffffffffffffffffffffffffffffffffffffffffffff1916145b806113d457506113d382611d6d565b5b9050919050565b6113e36114a4565b73ffffffffffffffffffffffffffffffffffffffff16611401610f25565b73ffffffffffffffffffffffffffffffffffffffff1614611457576040517f08c379a000000000000000000000000000000000000000000000000000000000815260040161144e9061360c565b60405180910390fd5b565b61146281611b0e565b6114a1576040517f08c379a0000000000000000000000000000000000000000000000000000000008152600401611498906132e9565b60405180910390fd5b50565b600033905090565b816004600083815260200190815260200160002060006101000a81548173ffffffffffffffffffffffffffffffffffffffff021916908373ffffffffffffffffffffffffffffffffffffffff160217905550808273ffffffffffffffffffffffffffffffffffffffff1661151f83610d19565b73ffffffffffffffffffffffffffffffffffffffff167f8c5be1e5ebec7d5bd14f71427d1e84f3dd0314c0f7b2291e5b200ac8c7c3b92560405160405180910390a45050565b60008061157183610d19565b90508073ffffffffffffffffffffffffffffffffffffffff168473ffffffffffffffffffffffffffffffffffffffff1614806115b357506115b281856111b9565b5b806115f157508373ffffffffffffffffffffffffffffffffffffffff166115d984610823565b73ffffffffffffffffffffffffffffffffffffffff16145b91505092915050565b8273ffffffffffffffffffffffffffffffffffffffff1661161a82610d19565b73ffffffffffffffffffffffffffffffffffffffff1614611670576040517f08c379a00000000000000000000000000000000000000000000000000000000081526004016116679061369e565b60405180910390fd5b600073ffffffffffffffffffffffffffffffffffffffff168273ffffffffffffffffffffffffffffffffffffffff1614156116e0576040517f08c379a00000000000000000000000000000000000000000000000000000000081526004016116d790613730565b60405180910390fd5b6116eb838383611dd7565b6116f66000826114ac565b6001600360008573ffffffffffffffffffffffffffffffffffffffff1673ffffffffffffffffffffffffffffffffffffffff16815260200190815260200160002060008282546117469190613750565b925050819055506001600360008473ffffffffffffffffffffffffffffffffffffffff1673ffffffffffffffffffffffffffffffffffffffff168152602001908152602001600020600082825461179d919061313d565b92505081905550816002600083815260200190815260200160002060006101000a81548173ffffffffffffffffffffffffffffffffffffffff021916908373ffffffffffffffffffffffffffffffffffffffff160217905550808273ffffffffffffffffffffffffffffffffffffffff168473ffffffffffffffffffffffffffffffffffffffff167fddf252ad1be2c89b69c2b068fc378daa952ba7f163c4a11628f55a4df523b3ef60405160405180910390a461185c838383611eeb565b505050565b61187b828260405180602001604052806000815250611ef0565b5050565b6000600a60009054906101000a900473ffffffffffffffffffffffffffffffffffffffff16905081600a60006101000a81548173ffffffffffffffffffffffffffffffffffffffff021916908373ffffffffffffffffffffffffffffffffffffffff1602179055508173ffffffffffffffffffffffffffffffffffffffff168173ffffffffffffffffffffffffffffffffffffffff167f8be0079c531659141344cd1fd0a4f28419497f9722a3daafe3b4186f6b6457e060405160405180910390a35050565b8173ffffffffffffffffffffffffffffffffffffffff168373ffffffffffffffffffffffffffffffffffffffff1614156119b4576040517f08c379a00000000000000000000000000000000000000000000000000000000081526004016119ab906137d0565b60405180910390fd5b80600560008573ffffffffffffffffffffffffffffffffffffffff1673ffffffffffffffffffffffffffffffffffffffff16815260200190815260200160002060008473ffffffffffffffffffffffffffffffffffffffff1673ffffffffffffffffffffffffffffffffffffffff16815260200190815260200160002060006101000a81548160ff0219169083151502179055508173ffffffffffffffffffffffffffffffffffffffff168373ffffffffffffffffffffffffffffffffffffffff167f17307eab39ab6107e8899845ad3d59bd9653f200f220920489ca2b5937696c3183604051611aa59190612719565b60405180910390a3505050565b611abd8484846115fa565b611ac984848484611f4b565b611b08576040517f08c379a0000000000000000000000000000000000000000000000000000000008152600401611aff90613862565b60405180910390fd5b50505050565b60008073ffffffffffffffffffffffffffffffffffffffff166002600084815260200190815260200160002060009054906101000a900473ffffffffffffffffffffffffffffffffffffffff1673ffffffffffffffffffffffffffffffffffffffff1614159050919050565b6060600b8054611b8990612e4e565b80601f0160208091040260200160405190810160405280929190818152602001828054611bb590612e4e565b8015611c025780601f10611bd757610100808354040283529160200191611c02565b820191906000526020600020905b815481529060010190602001808311611be557829003601f168201915b5050505050905090565b60606000821415611c54576040518060400160405280600181526020017f30000000000000000000000000000000000000000000000000000000000000008152509050611d68565b600082905060005b60008214611c86578080611c6f90613193565b915050600a82611c7f91906138b1565b9150611c5c565b60008167ffffffffffffffff811115611ca257611ca1612b07565b5b6040519080825280601f01601f191660200182016040528015611cd45781602001600182028036833780820191505090505b5090505b60008514611d6157600182611ced9190613750565b9150600a85611cfc91906138e2565b6030611d08919061313d565b60f81b818381518110611d1e57611d1d6131dc565b5b60200101907effffffffffffffffffffffffffffffffffffffffffffffffffffffffffffff1916908160001a905350600a85611d5a91906138b1565b9450611cd8565b8093505050505b919050565b60007f01ffc9a7000000000000000000000000000000000000000000000000000000007bffffffffffffffffffffffffffffffffffffffffffffffffffffffff1916827bffffffffffffffffffffffffffffffffffffffffffffffffffffffff1916149050919050565b611de28383836112f4565b600073ffffffffffffffffffffffffffffffffffffffff168373ffffffffffffffffffffffffffffffffffffffff161415611e2557611e20816120e2565b611e64565b8173ffffffffffffffffffffffffffffffffffffffff168373ffffffffffffffffffffffffffffffffffffffff1614611e6357611e62838261212b565b5b5b600073ffffffffffffffffffffffffffffffffffffffff168273ffffffffffffffffffffffffffffffffffffffff161415611ea757611ea281612298565b611ee6565b8273ffffffffffffffffffffffffffffffffffffffff168273ffffffffffffffffffffffffffffffffffffffff1614611ee557611ee48282612369565b5b5b505050565b505050565b611efa83836123e8565b611f076000848484611f4b565b611f46576040517f08c379a0000000000000000000000000000000000000000000000000000000008152600401611f3d90613862565b60405180910390fd5b505050565b6000611f6c8473ffffffffffffffffffffffffffffffffffffffff166112d1565b156120d5578373ffffffffffffffffffffffffffffffffffffffff1663150b7a02611f956114a4565b8786866040518563ffffffff1660e01b8152600401611fb79493929190613968565b602060405180830381600087803b158015611fd157600080fd5b505af192505050801561200257506040513d601f19601f82011682018060405250810190611fff91906139c9565b60015b612085573d8060008114612032576040519150601f19603f3d011682016040523d82523d6000602084013e612037565b606091505b5060008151141561207d576040517f08c379a000000000000000000000000000000000000000000000000000000000815260040161207490613862565b60405180910390fd5b805181602001fd5b63150b7a0260e01b7bffffffffffffffffffffffffffffffffffffffffffffffffffffffff1916817bffffffffffffffffffffffffffffffffffffffffffffffffffffffff1916149150506120da565b600190505b949350505050565b6008805490506009600083815260200190815260200160002081905550600881908060018154018082558091505060019003906000526020600020016000909190919091505550565b6000600161213884610e59565b6121429190613750565b9050600060076000848152602001908152602001600020549050818114612227576000600660008673ffffffffffffffffffffffffffffffffffffffff1673ffffffffffffffffffffffffffffffffffffffff168152602001908152602001600020600084815260200190815260200160002054905080600660008773ffffffffffffffffffffffffffffffffffffffff1673ffffffffffffffffffffffffffffffffffffffff168152602001908152602001600020600084815260200190815260200160002081905550816007600083815260200190815260200160002081905550505b6007600084815260200190815260200160002060009055600660008573ffffffffffffffffffffffffffffffffffffffff1673ffffffffffffffffffffffffffffffffffffffff16815260200190815260200160002060008381526020019081526020016000206000905550505050565b600060016008805490506122ac9190613750565b90506000600960008481526020019081526020016000205490506000600883815481106122dc576122db6131dc565b5b9060005260206000200154905080600883815481106122fe576122fd6131dc565b5b90600052602060002001819055508160096000838152602001908152602001600020819055506009600085815260200190815260200160002060009055600880548061234d5761234c6139f6565b5b6001900381819060005260206000200160009055905550505050565b600061237483610e59565b905081600660008573ffffffffffffffffffffffffffffffffffffffff1673ffffffffffffffffffffffffffffffffffffffff168152602001908152602001600020600083815260200190815260200160002081905550806007600084815260200190815260200160002081905550505050565b600073ffffffffffffffffffffffffffffffffffffffff168273ffffffffffffffffffffffffffffffffffffffff161415612458576040517f08c379a000000000000000000000000000000000000000000000000000000000815260040161244f90613a71565b60405180910390fd5b61246181611b0e565b156124a1576040517f08c379a000000000000000000000000000000000000000000000000000000000815260040161249890613add565b60405180910390fd5b6124ad60008383611dd7565b6001600360008473ffffffffffffffffffffffffffffffffffffffff1673ffffffffffffffffffffffffffffffffffffffff16815260200190815260200160002060008282546124fd919061313d565b92505081905550816002600083815260200190815260200160002060006101000a81548173ffffffffffffffffffffffffffffffffffffffff021916908373ffffffffffffffffffffffffffffffffffffffff160217905550808273ffffffffffffffffffffffffffffffffffffffff16600073ffffffffffffffffffffffffffffffffffffffff167fddf252ad1be2c89b69c2b068fc378daa952ba7f163c4a11628f55a4df523b3ef60405160405180910390a46125be60008383611eeb565b5050565b8280546125ce90612e4e565b90600052602060002090601f0160209004810192826125f05760008555612637565b82601f1061260957805160ff1916838001178555612637565b82800160010185558215612637579182015b8281111561263657825182559160200191906001019061261b565b5b5090506126449190612648565b5090565b5b80821115612661576000816000905550600101612649565b5090565b6000604051905090565b600080fd5b600080fd5b60007fffffffff0000000000000000000000000000000000000000000000000000000082169050919050565b6126ae81612679565b81146126b957600080fd5b50565b6000813590506126cb816126a5565b92915050565b6000602082840312156126e7576126e661266f565b5b60006126f5848285016126bc565b91505092915050565b60008115159050919050565b612713816126fe565b82525050565b600060208201905061272e600083018461270a565b92915050565b61273d816126fe565b811461274857600080fd5b50565b60008135905061275a81612734565b92915050565b6000602082840312156127765761277561266f565b5b60006127848482850161274b565b91505092915050565b600081519050919050565b600082825260208201905092915050565b60005b838110156127c75780820151818401526020810190506127ac565b838111156127d6576000848401525b50505050565b6000601f19601f8301169050919050565b60006127f88261278d565b6128028185612798565b93506128128185602086016127a9565b61281b816127dc565b840191505092915050565b6000602082019050818103600083015261284081846127ed565b905092915050565b6000819050919050565b61285b81612848565b811461286657600080fd5b50565b60008135905061287881612852565b92915050565b6000602082840312156128945761289361266f565b5b60006128a284828501612869565b91505092915050565b600073ffffffffffffffffffffffffffffffffffffffff82169050919050565b60006128d6826128ab565b9050919050565b6128e6816128cb565b82525050565b600060208201905061290160008301846128dd565b92915050565b612910816128cb565b811461291b57600080fd5b50565b60008135905061292d81612907565b92915050565b6000806040838503121561294a5761294961266f565b5b60006129588582860161291e565b925050602061296985828601612869565b9150509250929050565b61297c81612848565b82525050565b60006020820190506129976000830184612973565b92915050565b6000806000606084860312156129b6576129b561266f565b5b60006129c48682870161291e565b93505060206129d58682870161291e565b92505060406129e686828701612869565b9150509250925092565b600060208284031215612a0657612a0561266f565b5b6000612a148482850161291e565b91505092915050565b600081519050919050565b600082825260208201905092915050565b6000819050602082019050919050565b612a5281612848565b82525050565b6000612a648383612a49565b60208301905092915050565b6000602082019050919050565b6000612a8882612a1d565b612a928185612a28565b9350612a9d83612a39565b8060005b83811015612ace578151612ab58882612a58565b9750612ac083612a70565b925050600181019050612aa1565b5085935050505092915050565b60006020820190508181036000830152612af58184612a7d565b905092915050565b600080fd5b600080fd5b7f4e487b7100000000000000000000000000000000000000000000000000000000600052604160045260246000fd5b612b3f826127dc565b810181811067ffffffffffffffff82111715612b5e57612b5d612b07565b5b80604052505050565b6000612b71612665565b9050612b7d8282612b36565b919050565b600067ffffffffffffffff821115612b9d57612b9c612b07565b5b612ba6826127dc565b9050602081019050919050565b82818337600083830152505050565b6000612bd5612bd084612b82565b612b67565b905082815260208101848484011115612bf157612bf0612b02565b5b612bfc848285612bb3565b509392505050565b600082601f830112612c1957612c18612afd565b5b8135612c29848260208601612bc2565b91505092915050565b600060208284031215612c4857612c4761266f565b5b600082013567ffffffffffffffff811115612c6657612c65612674565b5b612c7284828501612c04565b91505092915050565b60008060408385031215612c9257612c9161266f565b5b6000612ca08582860161291e565b9250506020612cb18582860161274b565b9150509250929050565b600067ffffffffffffffff821115612cd657612cd5612b07565b5b612cdf826127dc565b9050602081019050919050565b6000612cff612cfa84612cbb565b612b67565b905082815260208101848484011115612d1b57612d1a612b02565b5b612d26848285612bb3565b509392505050565b600082601f830112612d4357612d42612afd565b5b8135612d53848260208601612cec565b91505092915050565b60008060008060808587031215612d7657612d7561266f565b5b6000612d848782880161291e565b9450506020612d958782880161291e565b9350506040612da687828801612869565b925050606085013567ffffffffffffffff811115612dc757612dc6612674565b5b612dd387828801612d2e565b91505092959194509250565b60008060408385031215612df657612df561266f565b5b6000612e048582860161291e565b9250506020612e158582860161291e565b9150509250929050565b7f4e487b7100000000000000000000000000000000000000000000000000000000600052602260045260246000fd5b60006002820490506001821680612e6657607f821691505b60208210811415612e7a57612e79612e1f565b5b50919050565b7f4552433732313a20617070726f76616c20746f2063757272656e74206f776e6560008201527f7200000000000000000000000000000000000000000000000000000000000000602082015250565b6000612edc602183612798565b9150612ee782612e80565b604082019050919050565b60006020820190508181036000830152612f0b81612ecf565b9050919050565b7f4552433732313a20617070726f76652063616c6c6572206973206e6f7420746f60008201527f6b656e206f776e6572206e6f7220617070726f76656420666f7220616c6c0000602082015250565b6000612f6e603e83612798565b9150612f7982612f12565b604082019050919050565b60006020820190508181036000830152612f9d81612f61565b9050919050565b7f4552433732313a2063616c6c6572206973206e6f7420746f6b656e206f776e6560008201527f72206e6f7220617070726f766564000000000000000000000000000000000000602082015250565b6000613000602e83612798565b915061300b82612fa4565b604082019050919050565b6000602082019050818103600083015261302f81612ff3565b9050919050565b7f455243373231456e756d657261626c653a206f776e657220696e646578206f7560008201527f74206f6620626f756e6473000000000000000000000000000000000000000000602082015250565b6000613092602b83612798565b915061309d82613036565b604082019050919050565b600060208201905081810360008301526130c181613085565b9050919050565b600081905092915050565b50565b60006130e36000836130c8565b91506130ee826130d3565b600082019050919050565b6000613104826130d6565b9150819050919050565b7f4e487b7100000000000000000000000000000000000000000000000000000000600052601160045260246000fd5b600061314882612848565b915061315383612848565b9250827fffffffffffffffffffffffffffffffffffffffffffffffffffffffffffffffff038211156131885761318761310e565b5b828201905092915050565b600061319e82612848565b91507fffffffffffffffffffffffffffffffffffffffffffffffffffffffffffffffff8214156131d1576131d061310e565b5b600182019050919050565b7f4e487b7100000000000000000000000000000000000000000000000000000000600052603260045260246000fd5b7f455243373231456e756d657261626c653a20676c6f62616c20696e646578206f60008201527f7574206f6620626f756e64730000000000000000000000000000000000000000602082015250565b6000613267602c83612798565b91506132728261320b565b604082019050919050565b600060208201905081810360008301526132968161325a565b9050919050565b7f4552433732313a20696e76616c696420746f6b656e2049440000000000000000600082015250565b60006132d3601883612798565b91506132de8261329d565b602082019050919050565b60006020820190508181036000830152613302816132c6565b9050919050565b7f4552433732313a2061646472657373207a65726f206973206e6f74206120766160008201527f6c6964206f776e65720000000000000000000000000000000000000000000000602082015250565b6000613365602983612798565b915061337082613309565b604082019050919050565b6000602082019050818103600083015261339481613358565b9050919050565b7f4552433732314d657461646174613a2055524920717565727920666f72206e6f60008201527f6e6578697374656e7420746f6b656e0000000000000000000000000000000000602082015250565b60006133f7602f83612798565b91506134028261339b565b604082019050919050565b60006020820190508181036000830152613426816133ea565b9050919050565b600081905092915050565b60006134438261278d565b61344d818561342d565b935061345d8185602086016127a9565b80840191505092915050565b60008190508160005260206000209050919050565b6000815461348b81612e4e565b613495818661342d565b945060018216600081146134b057600181146134c1576134f4565b60ff198316865281860193506134f4565b6134ca85613469565b60005b838110156134ec578154818901526001820191506020810190506134cd565b838801955050505b50505092915050565b60006135098286613438565b91506135158285613438565b9150613521828461347e565b9150819050949350505050565b7f4f776e61626c653a206e6577206f776e657220697320746865207a65726f206160008201527f6464726573730000000000000000000000000000000000000000000000000000602082015250565b600061358a602683612798565b91506135958261352e565b604082019050919050565b600060208201905081810360008301526135b98161357d565b9050919050565b7f4f776e61626c653a2063616c6c6572206973206e6f7420746865206f776e6572600082015250565b60006135f6602083612798565b9150613601826135c0565b602082019050919050565b60006020820190508181036000830152613625816135e9565b9050919050565b7f4552433732313a207472616e736665722066726f6d20696e636f72726563742060008201527f6f776e6572000000000000000000000000000000000000000000000000000000602082015250565b6000613688602583612798565b91506136938261362c565b604082019050919050565b600060208201905081810360008301526136b78161367b565b9050919050565b7f4552433732313a207472616e7366657220746f20746865207a65726f2061646460008201527f7265737300000000000000000000000000000000000000000000000000000000602082015250565b600061371a602483612798565b9150613725826136be565b604082019050919050565b600060208201905081810360008301526137498161370d565b9050919050565b600061375b82612848565b915061376683612848565b9250828210156137795761377861310e565b5b828203905092915050565b7f4552433732313a20617070726f766520746f2063616c6c657200000000000000600082015250565b60006137ba601983612798565b91506137c582613784565b602082019050919050565b600060208201905081810360008301526137e9816137ad565b9050919050565b7f4552433732313a207472616e7366657220746f206e6f6e20455243373231526560008201527f63656976657220696d706c656d656e7465720000000000000000000000000000602082015250565b600061384c603283612798565b9150613857826137f0565b604082019050919050565b6000602082019050818103600083015261387b8161383f565b9050919050565b7f4e487b7100000000000000000000000000000000000000000000000000000000600052601260045260246000fd5b60006138bc82612848565b91506138c783612848565b9250826138d7576138d6613882565b5b828204905092915050565b60006138ed82612848565b91506138f883612848565b92508261390857613907613882565b5b828206905092915050565b600081519050919050565b600082825260208201905092915050565b600061393a82613913565b613944818561391e565b93506139548185602086016127a9565b61395d816127dc565b840191505092915050565b600060808201905061397d60008301876128dd565b61398a60208301866128dd565b6139976040830185612973565b81810360608301526139a9818461392f565b905095945050505050565b6000815190506139c3816126a5565b92915050565b6000602082840312156139df576139de61266f565b5b60006139ed848285016139b4565b91505092915050565b7f4e487b7100000000000000000000000000000000000000000000000000000000600052603160045260246000fd5b7f4552433732313a206d696e7420746f20746865207a65726f2061646472657373600082015250565b6000613a5b602083612798565b9150613a6682613a25565b602082019050919050565b60006020820190508181036000830152613a8a81613a4e565b9050919050565b7f4552433732313a20746f6b656e20616c7265616479206d696e74656400000000600082015250565b6000613ac7601c83612798565b9150613ad282613a91565b602082019050919050565b60006020820190508181036000830152613af681613aba565b905091905056fea264697066735822122078fc5966d3bccb09519eab465a6d07e20cb658916c634c84c8cab4d05412710264736f6c63430008090033a264697066735822122074213f71a11d6aeab142734c580d89a0faf49d61be40f7d051d04eb50a6fe2bb64736f6c63430008090033",
  "linkReferences": {},
  "deployedLinkReferences": {}
}